{
	"contracts/DogeBank.sol": {
		"DogeBank": {
			"abi": [
				{
					"inputs": [
						{
							"internalType": "uint256",
							"name": "_amount",
							"type": "uint256"
						},
						{
							"internalType": "address",
							"name": "_receiver",
							"type": "address"
						}
					],
					"name": "deposit",
					"outputs": [],
					"stateMutability": "nonpayable",
					"type": "function"
				},
				{
					"inputs": [
						{
							"internalType": "address",
							"name": "_my",
							"type": "address"
						}
					],
					"name": "viewBalance",
					"outputs": [
						{
							"internalType": "uint256",
							"name": "",
							"type": "uint256"
						}
					],
					"stateMutability": "view",
					"type": "function"
				}
			],
			"devdoc": {
				"kind": "dev",
				"methods": {},
				"version": 1
			},
			"evm": {
				"assembly": "    /* \"contracts/DogeBank.sol\":63:484  contract DogeBank {... */\n  mstore(0x40, 0x80)\n  callvalue\n  dup1\n  iszero\n  tag_1\n  jumpi\n  0x00\n  dup1\n  revert\ntag_1:\n  pop\n  dataSize(sub_0)\n  dup1\n  dataOffset(sub_0)\n  0x00\n  codecopy\n  0x00\n  return\nstop\n\nsub_0: assembly {\n        /* \"contracts/DogeBank.sol\":63:484  contract DogeBank {... */\n      mstore(0x40, 0x80)\n      callvalue\n      dup1\n      iszero\n      tag_1\n      jumpi\n      0x00\n      dup1\n      revert\n    tag_1:\n      pop\n      jumpi(tag_2, lt(calldatasize, 0x04))\n      shr(0xe0, calldataload(0x00))\n      dup1\n      0x6e553f65\n      eq\n      tag_3\n      jumpi\n      dup1\n      0xc1a13d1a\n      eq\n      tag_4\n      jumpi\n    tag_2:\n      0x00\n      dup1\n      revert\n        /* \"contracts/DogeBank.sol\":235:481  function deposit(uint _amount, address _receiver) external {... */\n    tag_3:\n      tag_5\n      0x04\n      dup1\n      calldatasize\n      sub\n      dup2\n      add\n      swap1\n      tag_6\n      swap2\n      swap1\n      tag_7\n      jump\t// in\n    tag_6:\n      tag_8\n      jump\t// in\n    tag_5:\n      stop\n        /* \"contracts/DogeBank.sol\":128:227  function viewBalance(address _my) public view returns(uint) {... */\n    tag_4:\n      tag_9\n      0x04\n      dup1\n      calldatasize\n      sub\n      dup2\n      add\n      swap1\n      tag_10\n      swap2\n      swap1\n      tag_11\n      jump\t// in\n    tag_10:\n      tag_12\n      jump\t// in\n    tag_9:\n      mload(0x40)\n      tag_13\n      swap2\n      swap1\n      tag_14\n      jump\t// in\n    tag_13:\n      mload(0x40)\n      dup1\n      swap2\n      sub\n      swap1\n      return\n        /* \"contracts/DogeBank.sol\":235:481  function deposit(uint _amount, address _receiver) external {... */\n    tag_8:\n        /* \"contracts/DogeBank.sol\":336:343  _amount */\n      dup2\n        /* \"contracts/DogeBank.sol\":313:321  balances */\n      0x00\n        /* \"contracts/DogeBank.sol\":313:333  balances[msg.sender] */\n      dup1\n        /* \"contracts/DogeBank.sol\":322:332  msg.sender */\n      caller\n        /* \"contracts/DogeBank.sol\":313:333  balances[msg.sender] */\n      0xffffffffffffffffffffffffffffffffffffffff\n      and\n      0xffffffffffffffffffffffffffffffffffffffff\n      and\n      dup2\n      mstore\n      0x20\n      add\n      swap1\n      dup2\n      mstore\n      0x20\n      add\n      0x00\n      keccak256\n      sload\n        /* \"contracts/DogeBank.sol\":313:343  balances[msg.sender] > _amount */\n      gt\n        /* \"contracts/DogeBank.sol\":305:366  require(balances[msg.sender] > _amount, \"NOt ENOUGH BALANCE\") */\n      tag_16\n      jumpi\n      mload(0x40)\n      0x08c379a000000000000000000000000000000000000000000000000000000000\n      dup2\n      mstore\n      0x04\n      add\n      tag_17\n      swap1\n      tag_18\n      jump\t// in\n    tag_17:\n      mload(0x40)\n      dup1\n      swap2\n      sub\n      swap1\n      revert\n    tag_16:\n        /* \"contracts/DogeBank.sol\":425:432  _amount */\n      dup2\n        /* \"contracts/DogeBank.sol\":402:410  balances */\n      0x00\n        /* \"contracts/DogeBank.sol\":402:422  balances[msg.sender] */\n      dup1\n        /* \"contracts/DogeBank.sol\":411:421  msg.sender */\n      caller\n        /* \"contracts/DogeBank.sol\":402:422  balances[msg.sender] */\n      0xffffffffffffffffffffffffffffffffffffffff\n      and\n      0xffffffffffffffffffffffffffffffffffffffff\n      and\n      dup2\n      mstore\n      0x20\n      add\n      swap1\n      dup2\n      mstore\n      0x20\n      add\n      0x00\n      keccak256\n      sload\n        /* \"contracts/DogeBank.sol\":402:432  balances[msg.sender] - _amount */\n      tag_19\n      swap2\n      swap1\n      tag_20\n      jump\t// in\n    tag_19:\n        /* \"contracts/DogeBank.sol\":379:387  balances */\n      0x00\n        /* \"contracts/DogeBank.sol\":379:399  balances[msg.sender] */\n      dup1\n        /* \"contracts/DogeBank.sol\":388:398  msg.sender */\n      caller\n        /* \"contracts/DogeBank.sol\":379:399  balances[msg.sender] */\n      0xffffffffffffffffffffffffffffffffffffffff\n      and\n      0xffffffffffffffffffffffffffffffffffffffff\n      and\n      dup2\n      mstore\n      0x20\n      add\n      swap1\n      dup2\n      mstore\n      0x20\n      add\n      0x00\n      keccak256\n        /* \"contracts/DogeBank.sol\":379:432  balances[msg.sender] = balances[msg.sender] - _amount */\n      dup2\n      swap1\n      sstore\n      pop\n        /* \"contracts/DogeBank.sol\":466:473  _amount */\n      dup2\n        /* \"contracts/DogeBank.sol\":443:451  balances */\n      0x00\n        /* \"contracts/DogeBank.sol\":443:462  balances[_receiver] */\n      dup1\n        /* \"contracts/DogeBank.sol\":452:461  _receiver */\n      dup4\n        /* \"contracts/DogeBank.sol\":443:462  balances[_receiver] */\n      0xffffffffffffffffffffffffffffffffffffffff\n      and\n      0xffffffffffffffffffffffffffffffffffffffff\n      and\n      dup2\n      mstore\n      0x20\n      add\n      swap1\n      dup2\n      mstore\n      0x20\n      add\n      0x00\n      keccak256\n      0x00\n        /* \"contracts/DogeBank.sol\":443:473  balances[_receiver] += _amount */\n      dup3\n      dup3\n      sload\n      tag_21\n      swap2\n      swap1\n      tag_22\n      jump\t// in\n    tag_21:\n      swap3\n      pop\n      pop\n      dup2\n      swap1\n      sstore\n      pop\n        /* \"contracts/DogeBank.sol\":235:481  function deposit(uint _amount, address _receiver) external {... */\n      pop\n      pop\n      jump\t// out\n        /* \"contracts/DogeBank.sol\":128:227  function viewBalance(address _my) public view returns(uint) {... */\n    tag_12:\n        /* \"contracts/DogeBank.sol\":182:186  uint */\n      0x00\n        /* \"contracts/DogeBank.sol\":206:214  balances */\n      dup1\n        /* \"contracts/DogeBank.sol\":206:219  balances[_my] */\n      0x00\n        /* \"contracts/DogeBank.sol\":215:218  _my */\n      dup4\n        /* \"contracts/DogeBank.sol\":206:219  balances[_my] */\n      0xffffffffffffffffffffffffffffffffffffffff\n      and\n      0xffffffffffffffffffffffffffffffffffffffff\n      and\n      dup2\n      mstore\n      0x20\n      add\n      swap1\n      dup2\n      mstore\n      0x20\n      add\n      0x00\n      keccak256\n      sload\n        /* \"contracts/DogeBank.sol\":199:219  return balances[_my] */\n      swap1\n      pop\n        /* \"contracts/DogeBank.sol\":128:227  function viewBalance(address _my) public view returns(uint) {... */\n      swap2\n      swap1\n      pop\n      jump\t// out\n        /* \"#utility.yul\":88:205   */\n    tag_25:\n        /* \"#utility.yul\":197:198   */\n      0x00\n        /* \"#utility.yul\":194:195   */\n      dup1\n        /* \"#utility.yul\":187:199   */\n      revert\n        /* \"#utility.yul\":334:411   */\n    tag_27:\n        /* \"#utility.yul\":371:378   */\n      0x00\n        /* \"#utility.yul\":400:405   */\n      dup2\n        /* \"#utility.yul\":389:405   */\n      swap1\n      pop\n        /* \"#utility.yul\":334:411   */\n      swap2\n      swap1\n      pop\n      jump\t// out\n        /* \"#utility.yul\":417:539   */\n    tag_28:\n        /* \"#utility.yul\":490:514   */\n      tag_45\n        /* \"#utility.yul\":508:513   */\n      dup2\n        /* \"#utility.yul\":490:514   */\n      tag_27\n      jump\t// in\n    tag_45:\n        /* \"#utility.yul\":483:488   */\n      dup2\n        /* \"#utility.yul\":480:515   */\n      eq\n        /* \"#utility.yul\":470:533   */\n      tag_46\n      jumpi\n        /* \"#utility.yul\":529:530   */\n      0x00\n        /* \"#utility.yul\":526:527   */\n      dup1\n        /* \"#utility.yul\":519:531   */\n      revert\n        /* \"#utility.yul\":470:533   */\n    tag_46:\n        /* \"#utility.yul\":417:539   */\n      pop\n      jump\t// out\n        /* \"#utility.yul\":545:684   */\n    tag_29:\n        /* \"#utility.yul\":591:596   */\n      0x00\n        /* \"#utility.yul\":629:635   */\n      dup2\n        /* \"#utility.yul\":616:636   */\n      calldataload\n        /* \"#utility.yul\":607:636   */\n      swap1\n      pop\n        /* \"#utility.yul\":645:678   */\n      tag_48\n        /* \"#utility.yul\":672:677   */\n      dup2\n        /* \"#utility.yul\":645:678   */\n      tag_28\n      jump\t// in\n    tag_48:\n        /* \"#utility.yul\":545:684   */\n      swap3\n      swap2\n      pop\n      pop\n      jump\t// out\n        /* \"#utility.yul\":690:816   */\n    tag_30:\n        /* \"#utility.yul\":727:734   */\n      0x00\n        /* \"#utility.yul\":767:809   */\n      0xffffffffffffffffffffffffffffffffffffffff\n        /* \"#utility.yul\":760:765   */\n      dup3\n        /* \"#utility.yul\":756:810   */\n      and\n        /* \"#utility.yul\":745:810   */\n      swap1\n      pop\n        /* \"#utility.yul\":690:816   */\n      swap2\n      swap1\n      pop\n      jump\t// out\n        /* \"#utility.yul\":822:918   */\n    tag_31:\n        /* \"#utility.yul\":859:866   */\n      0x00\n        /* \"#utility.yul\":888:912   */\n      tag_51\n        /* \"#utility.yul\":906:911   */\n      dup3\n        /* \"#utility.yul\":888:912   */\n      tag_30\n      jump\t// in\n    tag_51:\n        /* \"#utility.yul\":877:912   */\n      swap1\n      pop\n        /* \"#utility.yul\":822:918   */\n      swap2\n      swap1\n      pop\n      jump\t// out\n        /* \"#utility.yul\":924:1046   */\n    tag_32:\n        /* \"#utility.yul\":997:1021   */\n      tag_53\n        /* \"#utility.yul\":1015:1020   */\n      dup2\n        /* \"#utility.yul\":997:1021   */\n      tag_31\n      jump\t// in\n    tag_53:\n        /* \"#utility.yul\":990:995   */\n      dup2\n        /* \"#utility.yul\":987:1022   */\n      eq\n        /* \"#utility.yul\":977:1040   */\n      tag_54\n      jumpi\n        /* \"#utility.yul\":1036:1037   */\n      0x00\n        /* \"#utility.yul\":1033:1034   */\n      dup1\n        /* \"#utility.yul\":1026:1038   */\n      revert\n        /* \"#utility.yul\":977:1040   */\n    tag_54:\n        /* \"#utility.yul\":924:1046   */\n      pop\n      jump\t// out\n        /* \"#utility.yul\":1052:1191   */\n    tag_33:\n        /* \"#utility.yul\":1098:1103   */\n      0x00\n        /* \"#utility.yul\":1136:1142   */\n      dup2\n        /* \"#utility.yul\":1123:1143   */\n      calldataload\n        /* \"#utility.yul\":1114:1143   */\n      swap1\n      pop\n        /* \"#utility.yul\":1152:1185   */\n      tag_56\n        /* \"#utility.yul\":1179:1184   */\n      dup2\n        /* \"#utility.yul\":1152:1185   */\n      tag_32\n      jump\t// in\n    tag_56:\n        /* \"#utility.yul\":1052:1191   */\n      swap3\n      swap2\n      pop\n      pop\n      jump\t// out\n        /* \"#utility.yul\":1197:1671   */\n    tag_7:\n        /* \"#utility.yul\":1265:1271   */\n      0x00\n        /* \"#utility.yul\":1273:1279   */\n      dup1\n        /* \"#utility.yul\":1322:1324   */\n      0x40\n        /* \"#utility.yul\":1310:1319   */\n      dup4\n        /* \"#utility.yul\":1301:1308   */\n      dup6\n        /* \"#utility.yul\":1297:1320   */\n      sub\n        /* \"#utility.yul\":1293:1325   */\n      slt\n        /* \"#utility.yul\":1290:1409   */\n      iszero\n      tag_58\n      jumpi\n        /* \"#utility.yul\":1328:1407   */\n      tag_59\n      tag_25\n      jump\t// in\n    tag_59:\n        /* \"#utility.yul\":1290:1409   */\n    tag_58:\n        /* \"#utility.yul\":1448:1449   */\n      0x00\n        /* \"#utility.yul\":1473:1526   */\n      tag_60\n        /* \"#utility.yul\":1518:1525   */\n      dup6\n        /* \"#utility.yul\":1509:1515   */\n      dup3\n        /* \"#utility.yul\":1498:1507   */\n      dup7\n        /* \"#utility.yul\":1494:1516   */\n      add\n        /* \"#utility.yul\":1473:1526   */\n      tag_29\n      jump\t// in\n    tag_60:\n        /* \"#utility.yul\":1463:1526   */\n      swap3\n      pop\n        /* \"#utility.yul\":1419:1536   */\n      pop\n        /* \"#utility.yul\":1575:1577   */\n      0x20\n        /* \"#utility.yul\":1601:1654   */\n      tag_61\n        /* \"#utility.yul\":1646:1653   */\n      dup6\n        /* \"#utility.yul\":1637:1643   */\n      dup3\n        /* \"#utility.yul\":1626:1635   */\n      dup7\n        /* \"#utility.yul\":1622:1644   */\n      add\n        /* \"#utility.yul\":1601:1654   */\n      tag_33\n      jump\t// in\n    tag_61:\n        /* \"#utility.yul\":1591:1654   */\n      swap2\n      pop\n        /* \"#utility.yul\":1546:1664   */\n      pop\n        /* \"#utility.yul\":1197:1671   */\n      swap3\n      pop\n      swap3\n      swap1\n      pop\n      jump\t// out\n        /* \"#utility.yul\":1677:2006   */\n    tag_11:\n        /* \"#utility.yul\":1736:1742   */\n      0x00\n        /* \"#utility.yul\":1785:1787   */\n      0x20\n        /* \"#utility.yul\":1773:1782   */\n      dup3\n        /* \"#utility.yul\":1764:1771   */\n      dup5\n        /* \"#utility.yul\":1760:1783   */\n      sub\n        /* \"#utility.yul\":1756:1788   */\n      slt\n        /* \"#utility.yul\":1753:1872   */\n      iszero\n      tag_63\n      jumpi\n        /* \"#utility.yul\":1791:1870   */\n      tag_64\n      tag_25\n      jump\t// in\n    tag_64:\n        /* \"#utility.yul\":1753:1872   */\n    tag_63:\n        /* \"#utility.yul\":1911:1912   */\n      0x00\n        /* \"#utility.yul\":1936:1989   */\n      tag_65\n        /* \"#utility.yul\":1981:1988   */\n      dup5\n        /* \"#utility.yul\":1972:1978   */\n      dup3\n        /* \"#utility.yul\":1961:1970   */\n      dup6\n        /* \"#utility.yul\":1957:1979   */\n      add\n        /* \"#utility.yul\":1936:1989   */\n      tag_33\n      jump\t// in\n    tag_65:\n        /* \"#utility.yul\":1926:1989   */\n      swap2\n      pop\n        /* \"#utility.yul\":1882:1999   */\n      pop\n        /* \"#utility.yul\":1677:2006   */\n      swap3\n      swap2\n      pop\n      pop\n      jump\t// out\n        /* \"#utility.yul\":2012:2130   */\n    tag_34:\n        /* \"#utility.yul\":2099:2123   */\n      tag_67\n        /* \"#utility.yul\":2117:2122   */\n      dup2\n        /* \"#utility.yul\":2099:2123   */\n      tag_27\n      jump\t// in\n    tag_67:\n        /* \"#utility.yul\":2094:2097   */\n      dup3\n        /* \"#utility.yul\":2087:2124   */\n      mstore\n        /* \"#utility.yul\":2012:2130   */\n      pop\n      pop\n      jump\t// out\n        /* \"#utility.yul\":2136:2358   */\n    tag_14:\n        /* \"#utility.yul\":2229:2233   */\n      0x00\n        /* \"#utility.yul\":2267:2269   */\n      0x20\n        /* \"#utility.yul\":2256:2265   */\n      dup3\n        /* \"#utility.yul\":2252:2270   */\n      add\n        /* \"#utility.yul\":2244:2270   */\n      swap1\n      pop\n        /* \"#utility.yul\":2280:2351   */\n      tag_69\n        /* \"#utility.yul\":2348:2349   */\n      0x00\n        /* \"#utility.yul\":2337:2346   */\n      dup4\n        /* \"#utility.yul\":2333:2350   */\n      add\n        /* \"#utility.yul\":2324:2330   */\n      dup5\n        /* \"#utility.yul\":2280:2351   */\n      tag_34\n      jump\t// in\n    tag_69:\n        /* \"#utility.yul\":2136:2358   */\n      swap3\n      swap2\n      pop\n      pop\n      jump\t// out\n        /* \"#utility.yul\":2364:2533   */\n    tag_35:\n        /* \"#utility.yul\":2448:2459   */\n      0x00\n        /* \"#utility.yul\":2482:2488   */\n      dup3\n        /* \"#utility.yul\":2477:2480   */\n      dup3\n        /* \"#utility.yul\":2470:2489   */\n      mstore\n        /* \"#utility.yul\":2522:2526   */\n      0x20\n        /* \"#utility.yul\":2517:2520   */\n      dup3\n        /* \"#utility.yul\":2513:2527   */\n      add\n        /* \"#utility.yul\":2498:2527   */\n      swap1\n      pop\n        /* \"#utility.yul\":2364:2533   */\n      swap3\n      swap2\n      pop\n      pop\n      jump\t// out\n        /* \"#utility.yul\":2539:2707   */\n    tag_36:\n        /* \"#utility.yul\":2679:2699   */\n      0x4e4f7420454e4f5547482042414c414e43450000000000000000000000000000\n        /* \"#utility.yul\":2675:2676   */\n      0x00\n        /* \"#utility.yul\":2667:2673   */\n      dup3\n        /* \"#utility.yul\":2663:2677   */\n      add\n        /* \"#utility.yul\":2656:2700   */\n      mstore\n        /* \"#utility.yul\":2539:2707   */\n      pop\n      jump\t// out\n        /* \"#utility.yul\":2713:3079   */\n    tag_37:\n        /* \"#utility.yul\":2855:2858   */\n      0x00\n        /* \"#utility.yul\":2876:2943   */\n      tag_73\n        /* \"#utility.yul\":2940:2942   */\n      0x12\n        /* \"#utility.yul\":2935:2938   */\n      dup4\n        /* \"#utility.yul\":2876:2943   */\n      tag_35\n      jump\t// in\n    tag_73:\n        /* \"#utility.yul\":2869:2943   */\n      swap2\n      pop\n        /* \"#utility.yul\":2952:3045   */\n      tag_74\n        /* \"#utility.yul\":3041:3044   */\n      dup3\n        /* \"#utility.yul\":2952:3045   */\n      tag_36\n      jump\t// in\n    tag_74:\n        /* \"#utility.yul\":3070:3072   */\n      0x20\n        /* \"#utility.yul\":3065:3068   */\n      dup3\n        /* \"#utility.yul\":3061:3073   */\n      add\n        /* \"#utility.yul\":3054:3073   */\n      swap1\n      pop\n        /* \"#utility.yul\":2713:3079   */\n      swap2\n      swap1\n      pop\n      jump\t// out\n        /* \"#utility.yul\":3085:3504   */\n    tag_18:\n        /* \"#utility.yul\":3251:3255   */\n      0x00\n        /* \"#utility.yul\":3289:3291   */\n      0x20\n        /* \"#utility.yul\":3278:3287   */\n      dup3\n        /* \"#utility.yul\":3274:3292   */\n      add\n        /* \"#utility.yul\":3266:3292   */\n      swap1\n      pop\n        /* \"#utility.yul\":3338:3347   */\n      dup2\n        /* \"#utility.yul\":3332:3336   */\n      dup2\n        /* \"#utility.yul\":3328:3348   */\n      sub\n        /* \"#utility.yul\":3324:3325   */\n      0x00\n        /* \"#utility.yul\":3313:3322   */\n      dup4\n        /* \"#utility.yul\":3309:3326   */\n      add\n        /* \"#utility.yul\":3302:3349   */\n      mstore\n        /* \"#utility.yul\":3366:3497   */\n      tag_76\n        /* \"#utility.yul\":3492:3496   */\n      dup2\n        /* \"#utility.yul\":3366:3497   */\n      tag_37\n      jump\t// in\n    tag_76:\n        /* \"#utility.yul\":3358:3497   */\n      swap1\n      pop\n        /* \"#utility.yul\":3085:3504   */\n      swap2\n      swap1\n      pop\n      jump\t// out\n        /* \"#utility.yul\":3510:3690   */\n    tag_38:\n        /* \"#utility.yul\":3558:3635   */\n      0x4e487b7100000000000000000000000000000000000000000000000000000000\n        /* \"#utility.yul\":3555:3556   */\n      0x00\n        /* \"#utility.yul\":3548:3636   */\n      mstore\n        /* \"#utility.yul\":3655:3659   */\n      0x11\n        /* \"#utility.yul\":3652:3653   */\n      0x04\n        /* \"#utility.yul\":3645:3660   */\n      mstore\n        /* \"#utility.yul\":3679:3683   */\n      0x24\n        /* \"#utility.yul\":3676:3677   */\n      0x00\n        /* \"#utility.yul\":3669:3684   */\n      revert\n        /* \"#utility.yul\":3696:3890   */\n    tag_20:\n        /* \"#utility.yul\":3736:3740   */\n      0x00\n        /* \"#utility.yul\":3756:3776   */\n      tag_79\n        /* \"#utility.yul\":3774:3775   */\n      dup3\n        /* \"#utility.yul\":3756:3776   */\n      tag_27\n      jump\t// in\n    tag_79:\n        /* \"#utility.yul\":3751:3776   */\n      swap2\n      pop\n        /* \"#utility.yul\":3790:3810   */\n      tag_80\n        /* \"#utility.yul\":3808:3809   */\n      dup4\n        /* \"#utility.yul\":3790:3810   */\n      tag_27\n      jump\t// in\n    tag_80:\n        /* \"#utility.yul\":3785:3810   */\n      swap3\n      pop\n        /* \"#utility.yul\":3834:3835   */\n      dup3\n        /* \"#utility.yul\":3831:3832   */\n      dup3\n        /* \"#utility.yul\":3827:3836   */\n      sub\n        /* \"#utility.yul\":3819:3836   */\n      swap1\n      pop\n        /* \"#utility.yul\":3858:3859   */\n      dup2\n        /* \"#utility.yul\":3852:3856   */\n      dup2\n        /* \"#utility.yul\":3849:3860   */\n      gt\n        /* \"#utility.yul\":3846:3883   */\n      iszero\n      tag_81\n      jumpi\n        /* \"#utility.yul\":3863:3881   */\n      tag_82\n      tag_38\n      jump\t// in\n    tag_82:\n        /* \"#utility.yul\":3846:3883   */\n    tag_81:\n        /* \"#utility.yul\":3696:3890   */\n      swap3\n      swap2\n      pop\n      pop\n      jump\t// out\n        /* \"#utility.yul\":3896:4087   */\n    tag_22:\n        /* \"#utility.yul\":3936:3939   */\n      0x00\n        /* \"#utility.yul\":3955:3975   */\n      tag_84\n        /* \"#utility.yul\":3973:3974   */\n      dup3\n        /* \"#utility.yul\":3955:3975   */\n      tag_27\n      jump\t// in\n    tag_84:\n        /* \"#utility.yul\":3950:3975   */\n      swap2\n      pop\n        /* \"#utility.yul\":3989:4009   */\n      tag_85\n        /* \"#utility.yul\":4007:4008   */\n      dup4\n        /* \"#utility.yul\":3989:4009   */\n      tag_27\n      jump\t// in\n    tag_85:\n        /* \"#utility.yul\":3984:4009   */\n      swap3\n      pop\n        /* \"#utility.yul\":4032:4033   */\n      dup3\n        /* \"#utility.yul\":4029:4030   */\n      dup3\n        /* \"#utility.yul\":4025:4034   */\n      add\n        /* \"#utility.yul\":4018:4034   */\n      swap1\n      pop\n        /* \"#utility.yul\":4053:4056   */\n      dup1\n        /* \"#utility.yul\":4050:4051   */\n      dup3\n        /* \"#utility.yul\":4047:4057   */\n      gt\n        /* \"#utility.yul\":4044:4080   */\n      iszero\n      tag_86\n      jumpi\n        /* \"#utility.yul\":4060:4078   */\n      tag_87\n      tag_38\n      jump\t// in\n    tag_87:\n        /* \"#utility.yul\":4044:4080   */\n    tag_86:\n        /* \"#utility.yul\":3896:4087   */\n      swap3\n      swap2\n      pop\n      pop\n      jump\t// out\n\n    auxdata: 0xa2646970667358221220b8c2043f8c25cf9aa6d0b4175fc5666bbd9eeb670922fa7e09b35b48edc2d4cd64736f6c634300081a0033\n}\n",
				"bytecode": {
					"linkReferences": {},
					"object": "6080604052348015600e575f80fd5b506104888061001c5f395ff3fe608060405234801561000f575f80fd5b5060043610610034575f3560e01c80636e553f6514610038578063c1a13d1a14610054575b5f80fd5b610052600480360381019061004d91906102b6565b610084565b005b61006e600480360381019061006991906102f4565b6101e0565b60405161007b919061032e565b60405180910390f35b815f803373ffffffffffffffffffffffffffffffffffffffff1673ffffffffffffffffffffffffffffffffffffffff1681526020019081526020015f205411610102576040517f08c379a00000000000000000000000000000000000000000000000000000000081526004016100f9906103a1565b60405180910390fd5b815f803373ffffffffffffffffffffffffffffffffffffffff1673ffffffffffffffffffffffffffffffffffffffff1681526020019081526020015f205461014a91906103ec565b5f803373ffffffffffffffffffffffffffffffffffffffff1673ffffffffffffffffffffffffffffffffffffffff1681526020019081526020015f2081905550815f808373ffffffffffffffffffffffffffffffffffffffff1673ffffffffffffffffffffffffffffffffffffffff1681526020019081526020015f205f8282546101d5919061041f565b925050819055505050565b5f805f8373ffffffffffffffffffffffffffffffffffffffff1673ffffffffffffffffffffffffffffffffffffffff1681526020019081526020015f20549050919050565b5f80fd5b5f819050919050565b61023b81610229565b8114610245575f80fd5b50565b5f8135905061025681610232565b92915050565b5f73ffffffffffffffffffffffffffffffffffffffff82169050919050565b5f6102858261025c565b9050919050565b6102958161027b565b811461029f575f80fd5b50565b5f813590506102b08161028c565b92915050565b5f80604083850312156102cc576102cb610225565b5b5f6102d985828601610248565b92505060206102ea858286016102a2565b9150509250929050565b5f6020828403121561030957610308610225565b5b5f610316848285016102a2565b91505092915050565b61032881610229565b82525050565b5f6020820190506103415f83018461031f565b92915050565b5f82825260208201905092915050565b7f4e4f7420454e4f5547482042414c414e434500000000000000000000000000005f82015250565b5f61038b601283610347565b915061039682610357565b602082019050919050565b5f6020820190508181035f8301526103b88161037f565b9050919050565b7f4e487b71000000000000000000000000000000000000000000000000000000005f52601160045260245ffd5b5f6103f682610229565b915061040183610229565b9250828203905081811115610419576104186103bf565b5b92915050565b5f61042982610229565b915061043483610229565b925082820190508082111561044c5761044b6103bf565b5b9291505056fea2646970667358221220b8c2043f8c25cf9aa6d0b4175fc5666bbd9eeb670922fa7e09b35b48edc2d4cd64736f6c634300081a0033",
					"opcodes": "PUSH1 0x80 PUSH1 0x40 MSTORE CALLVALUE DUP1 ISZERO PUSH1 0xE JUMPI PUSH0 DUP1 REVERT JUMPDEST POP PUSH2 0x488 DUP1 PUSH2 0x1C PUSH0 CODECOPY PUSH0 RETURN INVALID PUSH1 0x80 PUSH1 0x40 MSTORE CALLVALUE DUP1 ISZERO PUSH2 0xF JUMPI PUSH0 DUP1 REVERT JUMPDEST POP PUSH1 0x4 CALLDATASIZE LT PUSH2 0x34 JUMPI PUSH0 CALLDATALOAD PUSH1 0xE0 SHR DUP1 PUSH4 0x6E553F65 EQ PUSH2 0x38 JUMPI DUP1 PUSH4 0xC1A13D1A EQ PUSH2 0x54 JUMPI JUMPDEST PUSH0 DUP1 REVERT JUMPDEST PUSH2 0x52 PUSH1 0x4 DUP1 CALLDATASIZE SUB DUP2 ADD SWAP1 PUSH2 0x4D SWAP2 SWAP1 PUSH2 0x2B6 JUMP JUMPDEST PUSH2 0x84 JUMP JUMPDEST STOP JUMPDEST PUSH2 0x6E PUSH1 0x4 DUP1 CALLDATASIZE SUB DUP2 ADD SWAP1 PUSH2 0x69 SWAP2 SWAP1 PUSH2 0x2F4 JUMP JUMPDEST PUSH2 0x1E0 JUMP JUMPDEST PUSH1 0x40 MLOAD PUSH2 0x7B SWAP2 SWAP1 PUSH2 0x32E JUMP JUMPDEST PUSH1 0x40 MLOAD DUP1 SWAP2 SUB SWAP1 RETURN JUMPDEST DUP2 PUSH0 DUP1 CALLER PUSH20 0xFFFFFFFFFFFFFFFFFFFFFFFFFFFFFFFFFFFFFFFF AND PUSH20 0xFFFFFFFFFFFFFFFFFFFFFFFFFFFFFFFFFFFFFFFF AND DUP2 MSTORE PUSH1 0x20 ADD SWAP1 DUP2 MSTORE PUSH1 0x20 ADD PUSH0 KECCAK256 SLOAD GT PUSH2 0x102 JUMPI PUSH1 0x40 MLOAD PUSH32 0x8C379A000000000000000000000000000000000000000000000000000000000 DUP2 MSTORE PUSH1 0x4 ADD PUSH2 0xF9 SWAP1 PUSH2 0x3A1 JUMP JUMPDEST PUSH1 0x40 MLOAD DUP1 SWAP2 SUB SWAP1 REVERT JUMPDEST DUP2 PUSH0 DUP1 CALLER PUSH20 0xFFFFFFFFFFFFFFFFFFFFFFFFFFFFFFFFFFFFFFFF AND PUSH20 0xFFFFFFFFFFFFFFFFFFFFFFFFFFFFFFFFFFFFFFFF AND DUP2 MSTORE PUSH1 0x20 ADD SWAP1 DUP2 MSTORE PUSH1 0x20 ADD PUSH0 KECCAK256 SLOAD PUSH2 0x14A SWAP2 SWAP1 PUSH2 0x3EC JUMP JUMPDEST PUSH0 DUP1 CALLER PUSH20 0xFFFFFFFFFFFFFFFFFFFFFFFFFFFFFFFFFFFFFFFF AND PUSH20 0xFFFFFFFFFFFFFFFFFFFFFFFFFFFFFFFFFFFFFFFF AND DUP2 MSTORE PUSH1 0x20 ADD SWAP1 DUP2 MSTORE PUSH1 0x20 ADD PUSH0 KECCAK256 DUP2 SWAP1 SSTORE POP DUP2 PUSH0 DUP1 DUP4 PUSH20 0xFFFFFFFFFFFFFFFFFFFFFFFFFFFFFFFFFFFFFFFF AND PUSH20 0xFFFFFFFFFFFFFFFFFFFFFFFFFFFFFFFFFFFFFFFF AND DUP2 MSTORE PUSH1 0x20 ADD SWAP1 DUP2 MSTORE PUSH1 0x20 ADD PUSH0 KECCAK256 PUSH0 DUP3 DUP3 SLOAD PUSH2 0x1D5 SWAP2 SWAP1 PUSH2 0x41F JUMP JUMPDEST SWAP3 POP POP DUP2 SWAP1 SSTORE POP POP POP JUMP JUMPDEST PUSH0 DUP1 PUSH0 DUP4 PUSH20 0xFFFFFFFFFFFFFFFFFFFFFFFFFFFFFFFFFFFFFFFF AND PUSH20 0xFFFFFFFFFFFFFFFFFFFFFFFFFFFFFFFFFFFFFFFF AND DUP2 MSTORE PUSH1 0x20 ADD SWAP1 DUP2 MSTORE PUSH1 0x20 ADD PUSH0 KECCAK256 SLOAD SWAP1 POP SWAP2 SWAP1 POP JUMP JUMPDEST PUSH0 DUP1 REVERT JUMPDEST PUSH0 DUP2 SWAP1 POP SWAP2 SWAP1 POP JUMP JUMPDEST PUSH2 0x23B DUP2 PUSH2 0x229 JUMP JUMPDEST DUP2 EQ PUSH2 0x245 JUMPI PUSH0 DUP1 REVERT JUMPDEST POP JUMP JUMPDEST PUSH0 DUP2 CALLDATALOAD SWAP1 POP PUSH2 0x256 DUP2 PUSH2 0x232 JUMP JUMPDEST SWAP3 SWAP2 POP POP JUMP JUMPDEST PUSH0 PUSH20 0xFFFFFFFFFFFFFFFFFFFFFFFFFFFFFFFFFFFFFFFF DUP3 AND SWAP1 POP SWAP2 SWAP1 POP JUMP JUMPDEST PUSH0 PUSH2 0x285 DUP3 PUSH2 0x25C JUMP JUMPDEST SWAP1 POP SWAP2 SWAP1 POP JUMP JUMPDEST PUSH2 0x295 DUP2 PUSH2 0x27B JUMP JUMPDEST DUP2 EQ PUSH2 0x29F JUMPI PUSH0 DUP1 REVERT JUMPDEST POP JUMP JUMPDEST PUSH0 DUP2 CALLDATALOAD SWAP1 POP PUSH2 0x2B0 DUP2 PUSH2 0x28C JUMP JUMPDEST SWAP3 SWAP2 POP POP JUMP JUMPDEST PUSH0 DUP1 PUSH1 0x40 DUP4 DUP6 SUB SLT ISZERO PUSH2 0x2CC JUMPI PUSH2 0x2CB PUSH2 0x225 JUMP JUMPDEST JUMPDEST PUSH0 PUSH2 0x2D9 DUP6 DUP3 DUP7 ADD PUSH2 0x248 JUMP JUMPDEST SWAP3 POP POP PUSH1 0x20 PUSH2 0x2EA DUP6 DUP3 DUP7 ADD PUSH2 0x2A2 JUMP JUMPDEST SWAP2 POP POP SWAP3 POP SWAP3 SWAP1 POP JUMP JUMPDEST PUSH0 PUSH1 0x20 DUP3 DUP5 SUB SLT ISZERO PUSH2 0x309 JUMPI PUSH2 0x308 PUSH2 0x225 JUMP JUMPDEST JUMPDEST PUSH0 PUSH2 0x316 DUP5 DUP3 DUP6 ADD PUSH2 0x2A2 JUMP JUMPDEST SWAP2 POP POP SWAP3 SWAP2 POP POP JUMP JUMPDEST PUSH2 0x328 DUP2 PUSH2 0x229 JUMP JUMPDEST DUP3 MSTORE POP POP JUMP JUMPDEST PUSH0 PUSH1 0x20 DUP3 ADD SWAP1 POP PUSH2 0x341 PUSH0 DUP4 ADD DUP5 PUSH2 0x31F JUMP JUMPDEST SWAP3 SWAP2 POP POP JUMP JUMPDEST PUSH0 DUP3 DUP3 MSTORE PUSH1 0x20 DUP3 ADD SWAP1 POP SWAP3 SWAP2 POP POP JUMP JUMPDEST PUSH32 0x4E4F7420454E4F5547482042414C414E43450000000000000000000000000000 PUSH0 DUP3 ADD MSTORE POP JUMP JUMPDEST PUSH0 PUSH2 0x38B PUSH1 0x12 DUP4 PUSH2 0x347 JUMP JUMPDEST SWAP2 POP PUSH2 0x396 DUP3 PUSH2 0x357 JUMP JUMPDEST PUSH1 0x20 DUP3 ADD SWAP1 POP SWAP2 SWAP1 POP JUMP JUMPDEST PUSH0 PUSH1 0x20 DUP3 ADD SWAP1 POP DUP2 DUP2 SUB PUSH0 DUP4 ADD MSTORE PUSH2 0x3B8 DUP2 PUSH2 0x37F JUMP JUMPDEST SWAP1 POP SWAP2 SWAP1 POP JUMP JUMPDEST PUSH32 0x4E487B7100000000000000000000000000000000000000000000000000000000 PUSH0 MSTORE PUSH1 0x11 PUSH1 0x4 MSTORE PUSH1 0x24 PUSH0 REVERT JUMPDEST PUSH0 PUSH2 0x3F6 DUP3 PUSH2 0x229 JUMP JUMPDEST SWAP2 POP PUSH2 0x401 DUP4 PUSH2 0x229 JUMP JUMPDEST SWAP3 POP DUP3 DUP3 SUB SWAP1 POP DUP2 DUP2 GT ISZERO PUSH2 0x419 JUMPI PUSH2 0x418 PUSH2 0x3BF JUMP JUMPDEST JUMPDEST SWAP3 SWAP2 POP POP JUMP JUMPDEST PUSH0 PUSH2 0x429 DUP3 PUSH2 0x229 JUMP JUMPDEST SWAP2 POP PUSH2 0x434 DUP4 PUSH2 0x229 JUMP JUMPDEST SWAP3 POP DUP3 DUP3 ADD SWAP1 POP DUP1 DUP3 GT ISZERO PUSH2 0x44C JUMPI PUSH2 0x44B PUSH2 0x3BF JUMP JUMPDEST JUMPDEST SWAP3 SWAP2 POP POP JUMP INVALID LOG2 PUSH5 0x6970667358 0x22 SLT KECCAK256 0xB8 0xC2 DIV EXTCODEHASH DUP13 0x25 0xCF SWAP11 0xA6 0xD0 0xB4 OR PUSH0 0xC5 PUSH7 0x6BBD9EEB670922 STATICCALL PUSH31 0x9B35B48EDC2D4CD64736F6C634300081A0033000000000000000000000000 "
				},
				"gasEstimates": {
					"creation": {
						"codeDepositCost": "232000",
						"executionCost": "273",
						"totalCost": "232273"
					},
					"external": {
						"deposit(uint256,address)": "infinite",
						"viewBalance(address)": "2829"
					}
				},
				"methodIdentifiers": {
					"deposit(uint256,address)": "6e553f65",
					"viewBalance(address)": "c1a13d1a"
				}
			},
			"storageLayout": {
				"storage": [
					{
						"astId": 5,
						"contract": "contracts/DogeBank.sol:DogeBank",
						"label": "balances",
						"offset": 0,
						"slot": "0",
						"type": "t_mapping(t_address,t_uint256)"
					}
				],
				"types": {
					"t_address": {
						"encoding": "inplace",
						"label": "address",
						"numberOfBytes": "20"
					},
					"t_mapping(t_address,t_uint256)": {
						"encoding": "mapping",
						"key": "t_address",
						"label": "mapping(address => uint256)",
						"numberOfBytes": "32",
						"value": "t_uint256"
					},
					"t_uint256": {
						"encoding": "inplace",
						"label": "uint256",
						"numberOfBytes": "32"
					}
				}
			},
			"userdoc": {
				"kind": "user",
				"methods": {},
				"version": 1
			}
		}
	}
}